:100000000C9434000C9446000C9446000C9446006A
:100010000C9446000C9446000C9446000C94460048
:100020000C9446000C9446000C9446000C94460038
:100030000C9446000C9446000C9446000C94460028
:100040000C9446000C9446000C9446000C94460018
:100050000C9446000C9446000C9446000C94460008
:100060000C9446000C94460011241FBECFEFD8E03C
:10007000DEBFCDBF21E0A0E0B1E001C01D92A03005
:10008000B207E1F70E9448000C945F000C94000056
:100090008CE284B981E58CBD80E090E3282F2A981A
:1000A0009EBD0DB407FEFDCF2EBD0DB407FEFDCFE6
:1000B0002A9A0296811520E4920774F7EFCFF894FC
:0200C000FFCF70
:00000001FF
