:100000000C9434000C9446000C9446000C9446006A
:100010000C9446000C9446000C9446000C94460048
:100020000C9446000C9446000C9446000C94460038
:100030000C9446000C9446000C9446000C94460028
:100040000C9446000C9446000C9446000C94460018
:100050000C9446000C9446000C9446000C94460008
:100060000C9446000C94460011241FBECFEFD8E03C
:10007000DEBFCDBF21E0A0E0B1E001C01D92A03005
:10008000B207E1F70E9452000C9464000C94000047
:100090008CE284B981E58CBD08958EBD0DB407FE58
:1000A000FDCF08950E944800C0E0D0E32A988D2F2C
:1000B0000E944D008C2F0E944D002A9A2296C11555
:0C00C00080E4D8079CF3F0CFF894FFCF49
:00000001FF
